S01500004D6F646275734578616D706C652E73726563D9
S113000070C40020D5020000D1020000D10200001B
S1130010D1020000D1020000D10200000000000063
S1130020000000000000000000000000D1020000F9
S1130030D102000000000000D1020000D102000043
S1130040D1020000D1020000D1020000D102000060
S1130050D1020000D1020000D1020000D102000050
S1130060D1020000D1020000D1020000D102000040
S1130070D1020000D1020000D1020000D102000030
S1130080D1020000D1020000D1020000D102000020
S1130090D1020000D1020000D1020000D102000010
S11300A0D1020000D1020000D1020000D102000000
S11300B0D1020000D1020000D1020000D1020000F0
S11300C0D1020000D1020000D1020000D1020000E0
S11300D0D1020000D1020000D1020000D1020000D0
S11300E0D1020000D1020000000000000000000066
S11300F000000000D1020000D1020000D102000083
S1130100D1020000D1020000D1020000D10200009F
S1130110D1020000D1020000D1020000D10200008F
S1130120D1020000D1020000D1020000D10200007F
S1130130D1020000D1020000D1020000D10200006F
S1130140D1020000D1020000D1020000D10200005F
S1130150D1020000D1020000D1020000D10200004F
S1130160D1020000D1020000D1020000D10200003F
S1130170D1020000D10200000000000000000000D5
S1130180D1020000D1020000D1020000D10200001F
S1130190D1020000D1020000D1020000D10200000F
S11301A0D1020000D1020000D1020000D1020000FF
S11301B0D1020000D1020000D1020000D1020000EF
S11301C0D1020000D1020000D1020000D1020000DF
S11301D0D1020000D1020000D1020000D1020000CF
S11301E0D1020000D1020000D1020000D1020000BF
S11301F0D1020000D1020000D1020000D1020000AF
S1130200D1020000D1020000D1020000D10200009E
S1130210D1020000D1020000D1020000D10200008E
S1130220D1020000D1020000D1020000D10200007E
S1130230D1020000D1020000D1020000D10200006E
S1130240D1020000D1020000D1020000D10200005E
S1130250D1020000D1020000D1020000D10200004E
S1130260D102000010B5054C237833B9044B13B107
S11302700448AFF300800123237010BD2C04002038
S113028000000000F40400000C4B43B10C480D497D
S113029010B5AFF300800C48036823B910BD0A48B9
S11302A0036833B97047094B002BF7D0BDE8104001
S11302B01847064B002BF5D0184700BF000000007C
S11302C0F404000030040020F404000000000000E6
S11302D0FEE7000008B5174B174A9A4210D0174B97
S11302E0144A9A420CD2013B9B1A23F003030433B1
S11302F01344114951F8040B42F8040B9A42F9D102
S11303000F4B104A9A420AD2013B9B1A23F0030373
S113031004331344002142F8041B9342FBD10A4ADC
S11303200A4B23F07F039360094B9847094B984786
S1130330FEE700BF00000020F40400002C040020AD
S11303406C0400202C04002000ED00E000000000FC
S11303505D03000059030000FEE7000070B50F4E76
S11303600F4D761BB61018BF002405D0013455F884
S1130370043B9847A642F9D10A4E0B4D761B00F078
S1130380A7F8B61018BF002406D0013455F8043B72
S11303909847A642F9D170BD70BD00BFDC040000CF
S11303A0DC040000E4040000DC040000024B13B190
S11303B0024800F005B8704700000000CD030000BB
S11303C0002301461A46184600F01EB838B50A4CF8
S11303D00A4D641BA4100AD004F18043013B05EBD1
S11303E08305013C55F804399847002CF9D1BDE840
S11303F0384000F077B800BFF4040000F0040000B7
S1130400704700BF704700BF2DE9F8432C4D0646E6
S1130410286898460F469146FFF7F2FF294B1C685F
S1130420D4F84831002B3ED05A681F2A1CDC02F154
S1130430010E76B103EB82010124C1F88890D3F850
S1130440880194402043022EC3F88801C1F8088132
S113045023D00232C3F804E0286843F82270FFF77F
S1130460D1FF0020BDE8F883174B0BB34FF4C870DD
S1130470AFF300800346D8B1D4F8482102600021CC
S113048041600A46C4F848014FF0010EC0F88811D3
S1130490C0F88C11002EDCD0CCE7D3F88C110C43BF
S11304A0C3F88C41D5E704F5A673C4F84831BBE71B
S11304B02868FFF7A7FF4FF0FF30BDE8F88300BFBF
S11304C028040020CC0400000000000000000020EC
S11304D0F8B500BFF8BC08BC9E467047AD030000E9
S11304E089020000F8B500BFF8BC08BC9E467047FE
S10704F0650200009D
S11304F400000000EC02002054030020BC03002090
S113050400000000000000000000000000000000E3
S113051400000000000000000000000000000000D3
S113052400000000000000000000000000000000C3
S113053400000000000000000000000000000000B3
S113054400000000000000000000000000000000A3
S11305540000000000000000000000000000000093
S11305640000000000000000000000000000000083
S11305740000000000000000000000000000000073
S11305840000000000000000000000000000000063
S11305940000000000000000010000000000000052
S11305A40E33CDAB34126DE6ECDE05000B00000017
S11305B40000000000000000000000000000000033
S11305C40000000000000000000000000000000023
S11305D40000000000000000000000000000000013
S11305E40000000000000000000000000000000003
S10F091400000000000000004804002067
S9030000FC
